:10000000F8FF0020110400005FA200005FA20000C2
:100010005FA200005FA200005FA200005FA20000DC
:100020005FA200005FA200005FA200005FA20000CC
:100030005FA200005FA200005FA200005FA20000BC
:100040005FA200005FA200005FA200005FA20000AC
:10040000FFFFFFFFFFFFFFFFFFFFFFFFFEFFFFFFFD
:1004100062B609F0E5FCFEE730B400204849086008
:100420000021002000220022464B1A6000220CE02E
:10043000434B1B688B4205DA414B19604249086007
:100440004248026000211000521C9F2A2FDA404BC4
:10045000D31844F66124E35C3D4C141944F660253E
:100460002C5DA3420BD33A4BD31844F66024E35CD3
:10047000374C141944F661252C5DA34207D2531C56
:10048000A02B04DA2F4B1B685B1C2E4C2360304BD7
:10049000D31844F66024E35CFF2BC9D12C4BD3184E
:1004A00044F66124E35CFF2BC2D1491CCCE7244B0A
:1004B0001B688B4205DA224B1960234908602348E8
:1004C000026024480068002802D001281AD033E0D6
:1004D0001B480068292814DA1B480068012806DA3E
:1004E00001201C49086001201B49086009E01748E9
:1004F00000689F2805DB0120164908600020164986
:10050000086019E00E480068462815DB12480068AC
:10051000012806D10C480068012802DA00200D49A4
:1005200008600D480068002806D1084800689F2828
:1005300002DB0020074908600648006830BC7047AD
:10054000C0320020D4320020C8320020CC3200203B
:10055000F0320020C4320020E03200202DE9F04FBC
:1005600095B00021002012900020029000200C90F5
:100570000022002011900020019000200B9000200C
:10058000109000200F900022002301240020002062
:10059000002000200E9000200A90002500275FF028
:1005A00000080020139000200990002000200890EF
:1005B000002000200790002003905FF00009002039
:1005C000002006900020DFF8201B0860FFF724FFC2
:1005D000002807D0DFF8140B0068072802DA002093
:1005E00000F07EBD00261CE0DFF8040B0068DFF899
:1005F000041B21F81600DFF8000B0068DFF8FC1A76
:1006000021F81600DFF8E80A0068DFF8EC1A09683C
:100610000818022190FBF1F0DFF8E41A21F8160027
:10062000761C792EE0DB002000210020DFF8D41AB0
:1006300008605FF0000A5FF0000B0020002000203F
:10064000009003F031F90020DFF8BC1A08606E2634
:1006500000E0761E1F2E4FDBDFF8B00AA02101FB61
:10066000060090F84F00FF2810D1DFF8A00AA02163
:1006700001FB060010F8510C2843002806D1012088
:10068000DFF8801A0860D6F17800451CB6F10B003F
:100690003128DED2DFF8740AA02101FB060090F8B1
:1006A0004F00FF280CD1DFF8640AA02101FB0600EF
:1006B00010F8510C5AEA0000002801D1B6F1010AE5
:1006C000DFF8480AA02101FB060090F84F00FF2840
:1006D0000CD1DFF8380AA02101FB060090F8EF00EA
:1006E0005BEA0000002801D116F1010BBAF1000FFE
:1006F000AFD0BBF1000FACD0BAEB0B0010280BDB76
:10070000BAF11A0F08DBBBF1190F05DA1BEB0A006F
:10071000022190FBF1F000900020DFF8F41908604E
:1007200077268EE02721DFF8E409A02202FB0600ED
:10073000085CFF2813D1DFF8D409A02202FB0600D1
:10074000081810F8010CFF2809D1DFF8C009A02211
:1007500002FB060008184078FF2800F0C2807821CC
:10076000DFF8A809A02202FB0600085CFF2813D1CD
:10077000DFF89809A02202FB0600081810F8010C07
:10078000FF2809D1DFF88409A02202FB060008181F
:100790004078FF2800F0A5800921DFF87009A02229
:1007A00002FB0600085CFF2813D1DFF86009A022D5
:1007B00002FB0600081810F8010CFF2809D1DFF829
:1007C0004C09A02202FB060008184078FF2800F020
:1007D00088809621DFF83409A02202FB0600085C1D
:1007E000FF2812D1DFF82409A02202FB0600081816
:1007F00010F8010CFF2808D1DFF81009A02202FB35
:10080000060008184078FF286BD0DFF8E80810EBE6
:1008100046004088DFF8DC1821F81600DFF8DC0815
:1008200010EB46004088DFF8D41821F81600DFF8F6
:10083000D00810EB46004088DFF8C41821F81600F5
:10084000761E002E00F1E681DFF8C008A02101FB32
:10085000060090F84F00FF2802D10698401C069031
:100860007721701C03F026F805907721B01C03F067
:1008700021F804907721F01C03F01CF882467721C0
:10088000301D03F017F80D907721701D03F012F85A
:100890007721B01D03F00EF88346DFF8640810EBF3
:1008A0004600B0F90210DFF86408A02202FB06003F
:1008B000085CFF287FF436AFDFF85008A02202FB67
:1008C0000600081810F8010CFF287FF42BAFDFF8A2
:1008D0003C08A02202FB060008184078FF287FF49D
:1008E00021AF002000E0401C884216DADFF81C2807
:1008F000A02303FB0622825CDFF810385FF0A00C17
:100900000CFB0633C3185B789A42ECD2DFF8E4277D
:1009100022F816000E9A521C0E92884220D1089896
:1009200001220892D5F17902B24210DAD5F18D0296
:1009300096420CDA01280AD10898012807D1DFF87D
:10094000C4070068012802D10398401C0390DFF817
:10095000A407059A30F81200DFF8982722F816004D
:100960009F2000E0401E814217DADFF8A027A02375
:1009700003FB0622825CDFF894375FF0A00C0CFBCF
:100980000633C31813F8013C9A42EBD2DFF86C2708
:1009900022F816000A9A521C0A9288421FD1079820
:1009A00001210791D5F17901B1420FDAD5F18D011D
:1009B0008E420BDA012809D10798012806D1DFF809
:1009C00044070068012801D119F10109DFF82C075B
:1009D000059930F81100DFF8241721F81600DFF828
:1009E0002C070099A02202FB010090F84F0000287C
:1009F0005AD1DFF818070099A02202FB010090F8F5
:100A00004E00002850D1DFF804070099A02202FB15
:100A1000010090F85000002846D1DFF8F006009958
:100A2000A02202FB010090F84A0000283CD1DFF828
:100A3000DC060099A02202FB010090F85400002877
:100A400032D1DFF8C8060099A02202FB010090F81D
:100A50005E00002828D1DFF8B4060099A02202FB2E
:100A6000010090F8400000281ED1DFF8A006009990
:100A7000A02202FB0100407EFF2815D1DFF88C0682
:100A80000099A02202FB010090F88700FF280BD1FB
:100A9000B9F10B0F08DB03980B2805DB02F0FEFE13
:100AA0000120DFF864160860DFF8500630F9160000
:100AB000DFF84816049A31F91210401ADFF83C1694
:100AC000049A31F91210DFF8342632F91B20891A02
:100AD00001FB00F212F1040F01DA012803DA0B28FE
:100AE00027DB012925DADFF8140630F81A00DFF8D1
:100AF0000C1631F81A100818DFF8001631F81B1020
:100B0000401ADFF8F81521F81600DFF8F0050D9906
:100B100030F81100DFF8E41531F81A100818DFF882
:100B2000DC1531F81B10401ADFF8D015059A21F8B2
:100B30001200DFF8C00530F91600DFF8B815049A86
:100B400031F91210401ADFF8AC15049A31F912107D
:100B5000DFF8A02532F91B20891A01FB00F212F1FF
:100B6000040F01DA002804D410F10A0F27DA002953
:100B700025D4DFF8800530F81A00DFF8781531F851
:100B80001A100818DFF86C1531F81B10401ADFF83E
:100B9000641521F81600DFF85C050D9930F8110096
:100BA000DFF8501531F81A100818DFF8481531F839
:100BB0001B10401ADFF83C15059A21F81200DFF8E7
:100BC0003C0530F91600DFF82C1531F9161008181D
:100BD000022190FBF1F0DFF8281521F81600DFF86C
:100BE0001C0530F91600072811DBDFF8080530F97D
:100BF000160099280BDADFF8040530F91600DFF843
:100C0000F41431F91610401A0728BFF619AEDFF8B0
:100C1000D80406600020772605E0DFF8E41431F9F7
:100C200016104018761E3D2EF7DA3B2190FBF1F0AE
:100C30004F38069965291EDB811E172902D318300B
:100C4000172818D2DFF8B804B0F97800DFF8B0142C
:100C5000B1F9EE100818022190FBF1F0DFF8A014B2
:100C6000B1F9B410401A02F02DFE062803DB012072
:100C7000DFF89C14086000210022002040E0DFF82B
:100C80008C34D5F1000C5FF0A00E0EFB0C33C318B2
:100C900044F6612C1CF80330DFF870C4D5F1000E67
:100CA0005FF0A00A0AFB0ECC10EB0C0C44F6602E91
:100CB0001EF80CC063451CD3DFF85034D5F1000C8E
:100CC0005FF0A00E0EFB0C33C31844F6602C1CF82A
:100CD0000330DFF838C4D5F1000E5FF0A00A0AFB3C
:100CE0000ECC10EB0C0C44F6612E1EF80CC06345C4
:100CF00005D2431CA02B02DA099B5B1C0993401C04
:100D00009F28BCDBDFF8FC030068012838D1099874
:100D1000062835DAD5F1780600E0761C782E12DA4E
:100D2000DFF8E803A02303FB06000078FF2805D1C5
:100D30007F1CB5F11E008742EFDB04E0491C05294A
:100D4000EBDB00270021772600E0761ED5F1780046
:100D5000864215DBDFF8B403A02101FB060090F802
:100D60009F00FF2806D118F10108B5F11E0080454B
:100D7000EBDB05E0521C052AE7DB5FF000080022F0
:100D8000DFF884030068012831D0B6F11F00322853
:100D900011D2B5F11E0087420DDBB5F11E00804572
:100DA00009DB002D07D0DFF86C030078FF2802D0A4
:100DB0000A98A8421BDBB6F11F0050280CD2681F0E
:100DC000874209DB681F804506DB002D04D0DFF871
:100DD00044030078FF280AD103980B287DDBB9F182
:100DE0000B0F7ADBC94890F8D70FFF2875D0012088
:100DF000C5490860139800283AD07726002E6CD495
:100E0000B6F178002818A021484302F05FFD804623
:100E10008946280002F05AFD02000B004046494670
:100E200002F06AFD02000B000020BB4902F098FEB0
:100E300002F056FFB14921F816009F20AD4921F874
:100E40001600D5F16E00864203DA9F20AB4921F8E7
:100E50001600A84830F91600A84931F916100818EC
:100E6000022190FBF1F0A64921F81600761EC5E795
:100E7000772630E0B6F178002818A021484302F028
:100E800025FD80468946280002F020FD02000B0067
:100E90004046494602F030FD02F022FF954921F814
:100EA00016000020954921F81600D5F16E00864203
:100EB00003DA00208F4921F816008E4830F9160019
:100EC0008E4931F916100818022190FBF1F08C4977
:100ED00021F81600761E002ECCD5642600E0761E82
:100EE000152EC0F2918000210022854830F91600AD
:100EF00013E0864BA02505FB0633C31813F8013C0D
:100F0000002B22D1814BA02505FB0633C31813F813
:100F1000023C002B19D1491C401E764B33F9163088
:100F2000834215DA794BA02505FB0633C31813F865
:100F3000013C764DA02707FB0655455DAB4201D32A
:100F4000002AE9D00122012AD3D012900296002271
:100F5000129808180C9000220023694830F91600F6
:100F60001DE06A4DA02707FB065545196D78002D39
:100F70002DD1664DA02707FB06554519AD78002DEC
:100F800025D1521C5E4D35F916505D4F17EB4607C3
:100F900037F9027CED1B0B2D00DB0024401C574D64
:100FA00035F91650A84215DA584DA02707FB06550B
:100FB00045196D78554F5FF0A00C0CFB0677C75DA7
:100FC000BD4201D3002BDDD00123012BC9D01190EC
:100FD000019600231198801A0B90152908DB4848C8
:100FE000029930F91100002802D0012010900BE086
:100FF000152AFFF674AF4248019930F91100002814
:101000003FF46DAF01200F901098012827D1002CDC
:1010100025D0354800680299884220DA029E0FE008
:101020000C980299711A0C9A5143029AD2F17702E4
:1010300091FBF2F1401A0A302E4921F81600761C75
:10104000772EEDDB0298461E07E02A4810EB46009B
:101050004088284921F81600761E002EF5D50F98F5
:10106000012829D1002C27D01F4800680199884207
:1010700022DA019E11E00B980199711A0B9AD2F1B4
:10108000A0025143019AD2F1770291FBF2F10818C4
:101090000A381A4921F81600761C772EEBDB0198E6
:1010A000461E07E0154810EB46004088134921F81A
:1010B0001600761E002EF5D577260DE00D4830F986
:1010C00016000E4931F916100818022190FBF1F0B4
:1010D0000B4921F81600761E002EEFD50C4800684B
:1010E00015B0BDE8F08F0000BC320020D4320020E3
:1010F000C8320020682D0020CC320020582E00205D
:10110000482F0020D8320020DC320020F0320020AE
:10111000D0320020F8480020000064402DE9F04F54
:1011200095B00021002012900020029000200C9029
:101130000022002011900020019000200B90002040
:10114000109000200F900022002301240020002096
:10115000002000200E9000200A90002500275FF05C
:101160000008012013900020099000200020089022
:10117000002000200790002003905FF0000900206D
:10118000002006900020DFF8201B0860FFF744F9DC
:10119000002807D0DFF8140B0068072802DA0020C7
:1011A00000F07EBD00261CE0DFF8040B0068DFF8CD
:1011B000041B21F81600DFF8000B0068DFF8FC1AAA
:1011C00021F81600DFF8E80A0068DFF8EC1A096871
:1011D0000818022190FBF1F0DFF8E41A21F816005C
:1011E000761C792EE0DB002000210020DFF8D41AE5
:1011F00008605FF0000A5FF0000B00200020002074
:10120000009002F051FB0020DFF8BC1A08606E2647
:1012100000E0761E1F2E4FDBDFF8B00AA02101FB95
:10122000060090F84F00FF2810D1DFF8A00AA02197
:1012300001FB060010F8510C2843002806D10120BC
:10124000DFF8801A0860D6F17800451CB6F10B0073
:101250003128DED2DFF8740AA02101FB060090F8E5
:101260004F00FF280CD1DFF8640AA02101FB060023
:1012700010F8510C5AEA0000002801D1B6F1010A19
:10128000DFF8480AA02101FB060090F84F00FF2874
:101290000CD1DFF8380AA02101FB060090F8EF001E
:1012A0005BEA0000002801D116F1010BBAF1000F32
:1012B000AFD0BBF1000FACD0BAEB0B0010280BDBAA
:1012C000BAF11A0F08DBBBF1190F05DA1BEB0A00A4
:1012D000022190FBF1F000900020DFF8F419086083
:1012E00077268EE02721DFF8E409A02202FB060022
:1012F000085CFF2813D1DFF8D409A02202FB060006
:10130000081810F8010CFF2809D1DFF8C009A02245
:1013100002FB060008184078FF2800F0C280782100
:10132000DFF8A809A02202FB0600085CFF2813D101
:10133000DFF89809A02202FB0600081810F8010C3B
:10134000FF2809D1DFF88409A02202FB0600081853
:101350004078FF2800F0A5800921DFF87009A0225D
:1013600002FB0600085CFF2813D1DFF86009A02209
:1013700002FB0600081810F8010CFF2809D1DFF85D
:101380004C09A02202FB060008184078FF2800F054
:1013900088809621DFF83409A02202FB0600085C51
:1013A000FF2812D1DFF82409A02202FB060008184A
:1013B00010F8010CFF2808D1DFF81009A02202FB69
:1013C000060008184078FF286BD0DFF8E80810EB1B
:1013D00046004088DFF8DC1821F81600DFF8DC084A
:1013E00010EB46004088DFF8D41821F81600DFF82B
:1013F000D00810EB46004088DFF8C41821F816002A
:10140000761E002E00F1E681DFF8C008A02101FB66
:10141000060090F84F00FF2802D10698401C069065
:101420007721701C02F046FA05907721B01C02F07B
:1014300041FA04907721F01C02F03CFA82467721B1
:10144000301D02F037FA0D907721701D02F032FA4C
:101450007721B01D02F02EFA8346DFF8640810EB06
:101460004600B0F90210DFF86408A02202FB060073
:10147000085CFF287FF436AFDFF85008A02202FB9B
:101480000600081810F8010CFF287FF42BAFDFF8D6
:101490003C08A02202FB060008184078FF287FF4D1
:1014A00021AF002000E0401C884216DADFF81C283B
:1014B000A02303FB0622825CDFF810385FF0A00C4B
:1014C0000CFB0633C3185B789A42ECD2DFF8E427B2
:1014D00022F816000E9A521C0E92884220D10898CB
:1014E00001220892D5F17902B24210DAD5F18D02CB
:1014F00096420CDA01280AD10898012807D1DFF8B2
:10150000C4070068012802D10398401C0390DFF84B
:10151000A407059A30F81200DFF8982722F8160081
:101520009F2000E0401E814217DADFF8A027A023A9
:1015300003FB0622825CDFF894375FF0A00C0CFB03
:101540000633C31813F8013C9A42EBD2DFF86C273C
:1015500022F816000A9A521C0A9288421FD1079854
:1015600001210791D5F17901B1420FDAD5F18D0151
:101570008E420BDA012809D10798012806D1DFF83D
:1015800044070068012801D119F10109DFF82C078F
:10159000059930F81100DFF8241721F81600DFF85C
:1015A0002C070099A02202FB010090F84F000028B0
:1015B0005AD1DFF818070099A02202FB010090F829
:1015C0004E00002850D1DFF804070099A02202FB4A
:1015D000010090F85000002846D1DFF8F00600998D
:1015E000A02202FB010090F84A0000283CD1DFF85D
:1015F000DC060099A02202FB010090F854000028AC
:1016000032D1DFF8C8060099A02202FB010090F851
:101610005E00002828D1DFF8B4060099A02202FB62
:10162000010090F8400000281ED1DFF8A0060099C4
:10163000A02202FB0100407EFF2815D1DFF88C06B6
:101640000099A02202FB010090F88700FF280BD12F
:10165000B9F10B0F08DB03980B2805DB02F01EF92C
:101660000120DFF864160860DFF8500630F9160034
:10167000DFF84816049A31F91210401ADFF83C16C8
:10168000049A31F91210DFF8342632F91B20891A36
:1016900001FB00F212F1040F01DA012803DA0B2832
:1016A00027DB012925DADFF8140630F81A00DFF805
:1016B0000C1631F81A100818DFF8001631F81B1054
:1016C000401ADFF8F81521F81600DFF8F0050D993B
:1016D00030F81100DFF8E41531F81A100818DFF8B7
:1016E000DC1531F81B10401ADFF8D015059A21F8E7
:1016F0001200DFF8C00530F91600DFF8B815049ABB
:1017000031F91210401ADFF8AC15049A31F91210B1
:10171000DFF8A02532F91B20891A01FB00F212F133
:10172000040F01DA002804D410F10A0F27DA002987
:1017300025D4DFF8800530F81A00DFF8781531F885
:101740001A100818DFF86C1531F81B10401ADFF872
:10175000641521F81600DFF85C050D9930F81100CA
:10176000DFF8501531F81A100818DFF8481531F86D
:101770001B10401ADFF83C15059A21F81200DFF81B
:101780003C0530F91600DFF82C1531F91610081851
:10179000022190FBF1F0DFF8281521F81600DFF8A0
:1017A0001C0530F91600072811DBDFF8080530F9B1
:1017B000160099280BDADFF8040530F91600DFF877
:1017C000F41431F91610401A0728BFF619AEDFF8E5
:1017D000D80406600020772605E0DFF8E41431F92C
:1017E00016104018761E3D2EF7DA3B2190FBF1F0E3
:1017F0004F38069965291EDB811E172902D3183040
:10180000172818D2DFF8B804B0F97800DFF8B01460
:10181000B1F9EE100818022190FBF1F0DFF8A014E6
:10182000B1F9B410401A02F04DF8062803DB01208C
:10183000DFF89C14086000210022002040E0DFF85F
:101840008C34D5F1000C5FF0A00E0EFB0C33C318E6
:1018500044F6612C1CF80330DFF870C4D5F1000E9B
:101860005FF0A00A0AFB0ECC10EB0C0C44F6602EC5
:101870001EF80CC063451CD3DFF85034D5F1000CC2
:101880005FF0A00E0EFB0C33C31844F6602C1CF85E
:101890000330DFF838C4D5F1000E5FF0A00A0AFB70
:1018A0000ECC10EB0C0C44F6612E1EF80CC06345F8
:1018B00005D2431CA02B02DA099B5B1C0993401C38
:1018C0009F28BCDBDFF8FC030068012838D10998A9
:1018D000062835DAD5F1780600E0761C782E12DA83
:1018E000DFF8E803A02303FB06000078FF2805D1FA
:1018F0007F1CB5F11E008742EFDB04E0491C05297F
:10190000EBDB00270021772600E0761ED5F178007A
:10191000864215DBDFF8B403A02101FB060090F836
:101920009F00FF2806D118F10108B5F11E0080457F
:10193000EBDB05E0521C052AE7DB5FF00008002224
:10194000DFF884030068012831D0B6F11F00322887
:1019500011D2B5F11E0087420DDBB5F11E008045A6
:1019600009DB002D07D0DFF86C030078FF2802D0D8
:101970000A98A8421BDBB6F11F0050280CD2681F42
:10198000874209DB681F804506DB002D04D0DFF8A5
:1019900044030078FF280AD103980B287DDBB9F1B6
:1019A0000B0F7ADBC94890F8D70FFF2875D00120BC
:1019B000C5490860139800283AD07726002E6CD4C9
:1019C000B6F178002818A021484301F07FFF804637
:1019D0008946280001F07AFF02000B004046494684
:1019E00001F08AFF02000B000020BB4902F0B8F8AA
:1019F00002F076F9B14921F816009F20AD4921F88F
:101A00001600D5F16E00864203DA9F20AB4921F81B
:101A10001600A84830F91600A84931F91610081820
:101A2000022190FBF1F0A64921F81600761EC5E7C9
:101A3000772630E0B6F178002818A021484301F05D
:101A400045FF80468946280001F040FF02000B0058
:101A50004046494601F050FF02F042F9954921F80D
:101A600016000020954921F81600D5F16E00864237
:101A700003DA00208F4921F816008E4830F916004D
:101A80008E4931F916100818022190FBF1F08C49AB
:101A900021F81600761E002ECCD5642600E0761EB6
:101AA000152EC0F2918000210022854830F91600E1
:101AB00013E0864BA02505FB0633C31813F8013C41
:101AC000002B22D1814BA02505FB0633C31813F848
:101AD000023C002B19D1491C401E764B33F91630BD
:101AE000834215DA794BA02505FB0633C31813F89A
:101AF000013C764DA02707FB0655455DAB4201D35F
:101B0000002AE9D00122012AD3D0129002960022A5
:101B1000129808180C9000220023694830F916002A
:101B20001DE06A4DA02707FB065545196D78002D6D
:101B30002DD1664DA02707FB06554519AD78002D20
:101B400025D1521C5E4D35F916505D4F17EB4607F7
:101B500037F9027CED1B0B2D00DB0024401C574D98
:101B600035F91650A84215DA584DA02707FB06553F
:101B700045196D78554F5FF0A00C0CFB0677C75DDB
:101B8000BD4201D3002BDDD00123012BC9D0119020
:101B9000019600231198801A0B90152908DB4848FC
:101BA000029930F91100002802D0012010900BE0BA
:101BB000152AFFF674AF4248019930F91100002848
:101BC0003FF46DAF01200F901098012827D1002C11
:101BD00025D0354800680299884220DA029E0FE03D
:101BE0000C980299711A0C9A5143029AD2F1770219
:101BF00091FBF2F1401A0A302E4921F81600761CAA
:101C0000772EEDDB0298461E07E02A4810EB4600CF
:101C10004088284921F81600761E002EF5D50F9829
:101C2000012829D1002C27D01F480068019988423B
:101C300022DA019E11E00B980199711A0B9AD2F1E8
:101C4000A0025143019AD2F1770291FBF2F10818F8
:101C50000A381A4921F81600761C772EEBDB01981A
:101C6000461E07E0154810EB46004088134921F84E
:101C70001600761E002EF5D577260DE00D4830F9BA
:101C800016000E4931F916100818022190FBF1F0E8
:101C90000B4921F81600761E002EEFD50C4800687F
:101CA00015B0BDE8F08F0000BC320020D432002017
:101CB000C8320020682D0020CC320020582E002091
:101CC000482F0020D8320020DC320020F0320020E3
:101CD000D0320020F8480020000064402DE9F04F89
:101CE00095B00021002012900020029000200C905E
:101CF0000022002011900020019000200B90002075
:101D0000109000200F9000220023012400200020CA
:101D1000002000200E9000200A90002500275FF090
:101D20000008002013900020099000200020089057
:101D3000002000200790002003905FF000090020A1
:101D4000002006900020DFF81C1B0860FEF764FBF3
:101D5000002807D0DFF8100B0068072802DA0020FF
:101D600000F07DBD00261CE0DFF8000B0068DFF806
:101D7000001B21F81600DFF8FC0A0068DFF8F81AEB
:101D800021F81600DFF8E40A0068DFF8E81A0968AD
:101D90000818022190FBF1F0DFF8E01A21F8160094
:101DA000761C792EE0DB002000210020DFF8D01A1D
:101DB00008605FF0000A5FF0000B002000200020A8
:101DC000009001F071FD0020DFF8B81A08606E265F
:101DD00000E0761E1F2E4FDBDFF8AC0AA02101FBCE
:101DE000060090F84F00FF2810D1DFF89C0AA021D0
:101DF00001FB060010F8510C2843002806D10120F1
:101E0000DFF87C1A0860D6F17800451CB6F10B00AB
:101E10003128DED2DFF8700AA02101FB060090F81D
:101E20004F00FF280CD1DFF8600AA02101FB06005B
:101E300010F8510C5AEA0000002801D1B6F1010A4D
:101E4000DFF8440AA02101FB060090F84F00FF28AC
:101E50000CD1DFF8340AA02101FB060090F8EF0056
:101E60005BEA0000002801D116F1010BBAF1000F66
:101E7000AFD0BBF1000FACD0BAEB0B0010280BDBDE
:101E8000BAF11A0F08DBBBF1190F05DA1BEB0A00D8
:101E9000022190FBF1F000900020DFF8F0190860BB
:101EA00077268EE02721DFF8E009A02202FB06005A
:101EB000085CFF2813D1DFF8D009A02202FB06003E
:101EC000081810F8010CFF2809D1DFF8BC09A0227E
:101ED00002FB060008184078FF2800F0C280782135
:101EE000DFF8A409A02202FB0600085CFF2813D13A
:101EF000DFF89409A02202FB0600081810F8010C74
:101F0000FF2809D1DFF88009A02202FB060008188B
:101F10004078FF2800F0A5800921DFF86C09A02295
:101F200002FB0600085CFF2813D1DFF85C09A02241
:101F300002FB0600081810F8010CFF2809D1DFF891
:101F40004809A02202FB060008184078FF2800F08C
:101F500088809621DFF83009A02202FB0600085C89
:101F6000FF2812D1DFF82009A02202FB0600081882
:101F700010F8010CFF2808D1DFF80C09A02202FBA1
:101F8000060008184078FF286BD0DFF8E40810EB53
:101F900046004088DFF8D81821F81600DFF8D80886
:101FA00010EB46004088DFF8D01821F81600DFF863
:101FB000CC0810EB46004088DFF8C01821F8160066
:101FC000761E002E00F1E681DFF8BC08A02101FB9F
:101FD000060090F84F00FF2802D10698401C06909A
:101FE0007721701C01F066FC05907721B01C01F090
:101FF00061FC04907721F01C01F05CFC82467721A3
:10200000301D01F057FC0D907721701D01F052FC3E
:102010007721B01D01F04EFC8346DFF8600810EB1D
:102020004600B0F90210DFF86008A02202FB0600AB
:10203000085CFF287FF436AFDFF84C08A02202FBD3
:102040000600081810F8010CFF287FF42BAFDFF80A
:102050003808A02202FB060008184078FF287FF409
:1020600021AF002000E0401C884216DADFF8182873
:10207000A02303FB0622825CDFF80C385FF0A00C83
:102080000CFB0633C3185B789A42ECD2DFF8E027EA
:1020900022F816000E9A521C0E92884220D10898FF
:1020A00001220892D5F17902B24210DAD5F18D02FF
:1020B00096420CDA01280AD10898012807D1DFF8E6
:1020C000C0070068012802D10398401C0390DFF884
:1020D000A007059A30F81200DFF8942722F81600BE
:1020E0009F2000E0401E814217DADFF89C27A023E2
:1020F00003FB0622825CDFF890375FF0A00C0CFB3C
:102100000633C31813F8013C9A42EBD2DFF8682774
:1021100022F816000A9A521C0A9288421FD1079888
:1021200001210791D5F17901B1420FDAD5F18D0185
:102130008E420BDA012809D10798012806D1DFF871
:1021400040070068012801D119F10109DFF82807CB
:10215000059930F81100DFF8201721F81600DFF894
:1021600028070099A02202FB010090F84F000028E8
:102170005AD1DFF814070099A02202FB010090F861
:102180004E00002850D1DFF800070099A02202FB82
:10219000010090F85000002846D1DFF8EC060099C5
:1021A000A02202FB010090F84A0000283CD1DFF891
:1021B000D8060099A02202FB010090F854000028E4
:1021C00032D1DFF8C4060099A02202FB010090F88A
:1021D0005E00002828D1DFF8B0060099A02202FB9B
:1021E000010090F8400000281ED1DFF89C060099FD
:1021F000A02202FB0100407EFF2815D1DFF88806EF
:102200000099A02202FB010090F88700FF280BD163
:10221000B9F10B0F08DB03980B2805DB01F03EFB3F
:102220000120DFF860160860DFF84C0630F9160070
:10223000DFF84416049A31F91210401ADFF8381604
:10224000049A31F91210DFF8302632F91B20891A6E
:1022500001FB00F212F1040F01DA012803DA0B2866
:1022600027DB012925DADFF8100630F81A00DFF83D
:10227000081631F81A100818DFF8FC1531F81B1091
:10228000401ADFF8F41521F81600DFF8EC050D9977
:1022900030F81100DFF8E01531F81A100818DFF8EF
:1022A000D81531F81B10401ADFF8CC15059A21F823
:1022B0001200DFF8BC0530F91600DFF8B415049AF7
:1022C00031F91210401ADFF8A815049A31F91210EA
:1022D000DFF89C2532F91B20891A01FB00F212F16C
:1022E000040F01DA002804D410F10A0F27DA0029BC
:1022F00025D4DFF87C0530F81A00DFF8741531F8C2
:102300001A100818DFF8681531F81B10401ADFF8AA
:10231000601521F81600DFF858050D9930F8110006
:10232000DFF84C1531F81A100818DFF8441531F8A9
:102330001B10401ADFF83815059A21F81200DFF853
:10234000380530F91600DFF8281531F9161008188D
:10235000022190FBF1F0DFF8241521F81600DFF8D8
:10236000180530F91600072811DBDFF8040530F9ED
:10237000160099280BDADFF8000530F91600DFF8AF
:10238000F01431F91610401A0728BFF619AEDFF81D
:10239000D40406600020772605E0DFF8E01431F968
:1023A00016104018761E3D2EF7DA3B2190FBF1F017
:1023B0004F38069965291EDB811E172902D3183074
:1023C000172818D2DFF8B404B0F97800DFF8AC149D
:1023D000B1F9EE100818022190FBF1F0DFF89C141F
:1023E000B1F9B410401A01F06DFA062803DB0120A0
:1023F000DFF89814086000210022002040E0DFF898
:102400008834D5F1000C5FF0A00E0EFB0C33C3181E
:1024100044F6612C1CF80330DFF86CC4D5F1000ED3
:102420005FF0A00A0AFB0ECC10EB0C0C44F6602EF9
:102430001EF80CC063451CD3DFF84C34D5F1000CFA
:102440005FF0A00E0EFB0C33C31844F6602C1CF892
:102450000330DFF834C4D5F1000E5FF0A00A0AFBA8
:102460000ECC10EB0C0C44F6612E1EF80CC063452C
:1024700005D2431CA02B02DA099B5B1C0993401C6C
:102480009F28BCDBDFF8F8030068012838D10998E1
:10249000062835DAD5F1780600E0761C782E12DAB7
:1024A000DFF8E403A02303FB06000078FF2805D132
:1024B0007F1CB5F11E008742EFDB04E0491C0529B3
:1024C000EBDB00270021772600E0761ED5F17800AF
:1024D000864215DBDFF8B003A02101FB060090F86F
:1024E0009F00FF2806D118F10108B5F11E008045B4
:1024F000EBDB05E0521C052AE7DB5FF00008002259
:10250000DFF880030068012830D0B6F11F003228C0
:1025100011D2B5F11E0087420DDBB5F11E008045DA
:1025200009DB002D07D0DFF868030078FF2802D010
:102530000A98A8421ADBB6F11F0050280CD2681F77
:10254000874209DB681F804506DB002D04D0DFF8D9
:1025500040030078FF2809D103980B287CDBB9F1F0
:102560000B0F79DBCA480078FF2875D00120C549D8
:102570000860139800283AD07726002E6CD4B6F164
:1025800078002818A021484301F0A0F98046894628
:10259000280001F09BF902000B004046494601F07B
:1025A000ABF902000B000020BA4901F0D9FA01F0A2
:1025B00097FBB14921F816009F20AD4921F816007C
:1025C000D5F16E00864203DA9F20AB4921F8160050
:1025D000A74830F91600A84931F916100818022149
:1025E00090FBF1F0A54921F81600761EC5E7772685
:1025F00030E0B6F178002818A021484301F066F9D0
:1026000080468946280001F061F902000B0040462F
:10261000494601F071F901F063FB954921F8160074
:102620000020954921F81600D5F16E00864203DAA4
:1026300000208F4921F816008D4830F916008E4988
:1026400031F916100818022190FBF1F08B4921F89E
:102650001600761E002ECCD5642600E0761E152EC0
:10266000C0F2918000210022844830F9160013E066
:10267000854BA02505FB0633C31813F8013C002B3E
:1026800022D1814BA02505FB0633C31813F8023C69
:10269000002B19D1491C401E754B33F9163083426B
:1026A00015DA794BA02505FB0633C31813F8013C56
:1026B000754DA02707FB0655455DAB4201D3002AA7
:1026C000E9D00122012AD3D012900296002212985A
:1026D00008180C9000220023684830F916001DE00D
:1026E000694DA02707FB065545196D78002D2DD1A2
:1026F000654DA02707FB06554519AD78002D25D15E
:10270000521C5E4D35F916505C4F17EB460737F9F2
:10271000027CED1B0B2D00DB0024401C564D35F9CF
:102720001650A84215DA584DA02707FB0655451943
:102730006D78554F5FF0A00C0CFB0677C75DBD426E
:1027400001D3002BDDD00123012BC9D011900196BC
:1027500000231198801A0B90152908DB474802992D
:1027600030F91100002802D0012010900BE0152A4A
:10277000FFF674AF4148019930F9110000283FF489
:102780006DAF01200F901098012827D1002C25D083
:10279000344800680299884220DA029E0FE00C98C3
:1027A0000299711A0C9A5143029AD2F1770291FB65
:1027B000F2F1401A0A302E4921F81600761C772EC5
:1027C000EDDB0298461E07E0294810EB46004088E2
:1027D000274921F81600761E002EF5D50F980128FE
:1027E00029D1002C27D01F4800680199884222DA9D
:1027F000019E11E00B980199711A0B9AD2F1A00277
:102800005143019AD2F1770291FBF2F108180A388C
:10281000194921F81600761C772EEBDB0198461E2D
:1028200007E0154810EB46004088134921F81600D0
:10283000761E002EF5D577260DE00D4830F91600EE
:102840000D4931F916100818022190FBF1F00B49DF
:1028500021F81600761E002EEFD50C48006815B042
:10286000BDE8F08FBC320020D4320020C8320020F6
:10287000682D0020CC320020582E0020482F002048
:10288000D8320020DC320020F0320020D03200208C
:10289000F8480020000064402DE9F04F95B0002179
:1028A000002012900020029000200C9000220020B6
:1028B00011900020019000200B900020109000202B
:1028C0000F9000220023012400200020002000207F
:1028D0000E9000200A90002500275FF000080120DC
:1028E0001390002009900020002008900020002074
:1028F0000790002003905FF0000900200020069060
:102900000020DFF8701C0860FDF786FD002807D066
:10291000DFF8640C0068072802DA002000F092BD9E
:1029200000261CE0DFF8540C0068DFF8541C21F886
:102930001600DFF8500C0068DFF84C1C21F8160078
:10294000DFF8380C0068DFF83C1C09680818022121
:1029500090FBF1F0DFF8341C21F81600761C792E7C
:10296000E0DB002000210020DFF8241C08605FF07D
:10297000000A5FF0000B002000200020009000F013
:1029800093FF0020DFF80C1C08606E2600E0761E26
:102990001F2E4FDBDFF8000CA02101FB060090F892
:1029A0004F00FF2810D1DFF8F00BA02101FB06003B
:1029B00010F8510C2843002806D10120DFF8D01B65
:1029C0000860D6F17800451CB6F10B003128DED244
:1029D000DFF8C40BA02101FB060090F84F00FF2890
:1029E0000CD1DFF8B40BA02101FB060010F8510C4C
:1029F0005AEA0000002801D1B6F1010ADFF8980B6D
:102A0000A02101FB060090F84F00FF280CD1DFF851
:102A1000880BA02101FB060090F8EF005BEA0000A4
:102A2000002801D116F1010BBAF1000FAFD0BBF1B4
:102A3000000FACD0BAEB0B0010280BDBBAF11A0F69
:102A400008DBBBF1190F05DA1BEB0A00022190FB32
:102A5000F1F000900020DFF8741C086077268EE00B
:102A60002721DFF8340BA02202FB0600085CFF28B8
:102A700013D1DFF8240BA02202FB0600081810F87F
:102A8000010CFF2809D1DFF8100BA02202FB060081
:102A900008184078FF2800F0C2807821DFF8F80A93
:102AA000A02202FB0600085CFF2813D1DFF8E80A29
:102AB000A02202FB0600081810F8010CFF2809D11B
:102AC000DFF8D40AA02202FB060008184078FF288D
:102AD00000F0A5800921DFF8C00AA02202FB060051
:102AE000085CFF2813D1DFF8B00AA02202FB060021
:102AF000081810F8010CFF2809D1DFF89C0AA02261
:102B000002FB060008184078FF2800F08880962114
:102B1000DFF8840AA02202FB0600085CFF2812D11D
:102B2000DFF8740AA02202FB0600081810F8010C56
:102B3000FF2808D1DFF8600AA02202FB060008186F
:102B40004078FF286BD0DFF8380A10EB4600408849
:102B5000DFF82C1A21F81600DFF82C0A10EB4600DB
:102B60004088DFF8241A21F81600DFF8200A10EB5D
:102B700046004088DFF8141A21F81600761E002E51
:102B800000F1E681DFF8100AA02101FB060090F8B1
:102B90004F00FF2802D10698401C06907721701C38
:102BA00000F088FE05907721B01C00F083FE0490B1
:102BB0007721F01C00F07EFE82467721301D00F068
:102BC00079FE0D907721701D00F074FE7721B01D05
:102BD00000F070FE8346DFF8B40910EB4600B0F950
:102BE0000210DFF8B409A02202FB0600085CFF28EF
:102BF0007FF436AFDFF8A009A02202FB0600081818
:102C000010F8010CFF287FF42BAFDFF88C09A0220D
:102C100002FB060008184078FF287FF421AF00204F
:102C200000E0401C884216DADFF86C29A02303FB81
:102C30000622825CDFF860395FF0A00C0CFB0633E3
:102C4000C3185B789A42ECD2DFF8342922F81600D8
:102C50000E9A521C0E92884220D1089801220892A6
:102C6000D5F17902B24210DAD5F18D0296420CDA32
:102C700001280AD10898012807D1DFF81409006853
:102C8000012802D10398401C0390DFF8F408059A4C
:102C900030F81200DFF8E82822F816009F2000E044
:102CA000401E814217DADFF8F028A02303FB06223A
:102CB000825CDFF8E4385FF0A00C0CFB0633C3182D
:102CC00013F8013C9A42EBD2DFF8BC2822F8160038
:102CD0000A9A521C0A9288421FD107980121079133
:102CE000D5F17901B1420FDAD5F18D018E420BDABF
:102CF000012809D10798012806D1DFF89408006857
:102D0000012801D119F10109DFF87C08059930F893
:102D10001100DFF8741821F81600DFF87C0800991C
:102D2000A02202FB010090F84F0000285AD1DFF8E2
:102D300068080099A02202FB010090F84E000028CC
:102D400050D1DFF854080099A02202FB010090F84E
:102D50005000002846D1DFF840080099A02202FB6D
:102D6000010090F84A0000283CD1DFF82C080099B7
:102D7000A02202FB010090F85400002832D1DFF8B5
:102D800018080099A02202FB010090F85E000028BC
:102D900028D1DFF804080099A02202FB010090F876
:102DA000400000281ED1DFF8F0070099A02202FBA6
:102DB0000100407EFF2815D1DFF8DC070099A02232
:102DC00002FB010090F88700FF280BD1B9F10B0F2F
:102DD00008DB03980B2805DB00F060FD0120DFF81D
:102DE000B4170860DFF8A00730F91600DFF898176D
:102DF000049A31F91210401ADFF88C17049A31F94D
:102E00001210DFF8842732F91B20891A01FB00F227
:102E100012F1040F01DA012803DA0B2827DB01295C
:102E200025DADFF8640730F81A00DFF85C1731F8AC
:102E30001A100818DFF8501731F81B10401ADFF885
:102E4000481721F81600DFF840070D9930F81100F7
:102E5000DFF8341731F81A100818DFF82C1731F89A
:102E60001B10401ADFF82017059A21F81200DFF82E
:102E7000100730F91600DFF80817049A31F912101C
:102E8000401ADFF8FC16049A31F91210DFF8F02628
:102E900032F91B20891A01FB00F212F1040F01DA4A
:102EA000002804D410F10A0F27DA002925D4DFF80E
:102EB000D00630F81A00DFF8C81631F81A100818D2
:102EC000DFF8BC1631F81B10401ADFF8B41621F8F1
:102ED0001600DFF8AC060D9930F81100DFF8A016E7
:102EE00031F81A100818DFF8981631F81B10401A3C
:102EF000DFF88C16059A21F81200DFF88C0630F9FD
:102F00001600DFF87C1631F916100818022190FB24
:102F1000F1F0DFF8781621F81600DFF86C0630F9CA
:102F20001600072811DBDFF8580630F9160099283B
:102F30000BDADFF8540630F91600DFF8441631F9E1
:102F40001610401A0728BFF619AEDFF828060660EB
:102F50000020772605E0DFF8341631F91610401806
:102F6000761E3D2EF7DA3B2190FBF1F04F380699A3
:102F700065291EDB811E172902D31830172818D2A5
:102F8000DFF80806B0F97800DFF80016B1F9EE10A6
:102F90000818022190FBF1F0DFF8F015B1F9B41038
:102FA000401A00F08FFC062803DB0120DFF81C1715
:102FB000086000210022002040E0DFF8DC35D5F178
:102FC000000C5FF0A00E0EFB0C33C31844F6612C0E
:102FD0001CF80330DFF8C0C5D5F1000E5FF0A00A81
:102FE0000AFB0ECC10EB0C0C44F6602E1EF80CC045
:102FF00063451CD3DFF8A035D5F1000C5FF0A00EBF
:103000000EFB0C33C31844F6602C1CF80330DFF8B9
:1030100088C5D5F1000E5FF0A00A0AFB0ECC10EBBC
:103020000C0C44F6612E1EF80CC0634505D2431CFF
:10303000A02B02DA099B5B1C0993401C9F28BCDB78
:10304000DFF84C050068012838D10998062835DAE0
:10305000D5F1780600E0761C782E12DADFF8380514
:10306000A02303FB06000078FF2805D17F1CB5F1E3
:103070001E008742EFDB04E0491C0529EBDB00273B
:103080000021772600E0761ED5F17800864215DB18
:10309000DFF80405A02101FB060090F89F00FF283F
:1030A00006D118F10108B5F11E008045EBDB05E003
:1030B000521C052AE7DB5FF000080022DFF8D40489
:1030C0000068012834D0B6F11F00322811D2B5F1C2
:1030D0001E0087420DDBB5F11E00804509DB002D87
:1030E00007D0DFF868070078FF2802D00A98A842C6
:1030F0001EDBB6F11F0050280CD2681F874209DB87
:10310000681F804506DB002D04D0DFF840070078FB
:10311000FF280DD103980B28C0F28E80B9F10B0F58
:10312000C0F28A80DFF824070078FF2800F084804E
:103130000120DFF8601408601398002841D077263A
:10314000002E79D4B6F178002818A021484300F069
:10315000BDFB80468946280000F0B8FB02000B004A
:103160004046494600F0C8FB02000B000020DFF893
:10317000E01600F0F5FC00F0B3FDDFF80C1421F8C8
:1031800016009F20DFF8F81321F81600D5F16E0025
:10319000864204DA9F20DFF8F01321F81600DFF8EA
:1031A000E00330F91600DFF8E01331F916100818C3
:1031B000022190FBF1F0DFF8D41321F81600761EFF
:1031C000BEE7772636E0B6F178002818A0214843FC
:1031D00000F07CFB80468946280000F077FB020067
:1031E0000B004046494600F087FB00F079FDDFF810
:1031F000901321F816000020DFF88C1321F8160038
:10320000D5F16E00864204DA0020DFF8741321F84D
:103210001600DFF86C0330F91600DFF86C1331F993
:1032200016100818022190FBF1F0DFF8601321F866
:103230001600761E002EC6D5642600E0761E152EDA
:10324000C0F2948000210022DFF8400330F916001C
:1032500015E0DFF84433A02505FB0633C31813F847
:10326000013C002B23D1DFF83033A02505FB0633CA
:10327000C31813F8023C002B19D1491C401EC04B47
:1032800033F91630834215DAC34BA02505FB06330C
:10329000C31813F8013CC04DA02707FB0655455D38
:1032A000AB4201D3002AE9D00122012AD1D01290E9
:1032B00002960022129808180C9000220023B348AE
:1032C00030F916001DE0B44DA02707FB065545193F
:1032D0006D78002D2DD1B04DA02707FB065545195F
:1032E000AD78002D25D1521CA84D35F91650A74FA9
:1032F00017EB460737F9027CED1B0B2D00DB002492
:10330000401CA14D35F91650A84215DAA24DA02750
:1033100007FB065545196D789F4F5FF0A00C0CFB1D
:103320000677C75DBD4201D3002BDDD00123012B01
:10333000C9D01190019600231198801A0B9015297D
:1033400008DB9248029930F91100002802D00120D0
:1033500010900BE0152AFFF671AF8C48019930F9F7
:10336000110000283FF46AAF01200F901098012847
:1033700027D1002C25D07F4800680299884220DAA6
:10338000029E0FE00C980299711A0C9A5143029A0E
:10339000D2F1770291FBF2F1401A0A30784921F814
:1033A0001600761C772EEDDB0298461E07E0744867
:1033B00010EB46004088724921F81600761E002E58
:1033C000F5D50F98012829D1002C27D0694800682D
:1033D0000199884222DA019E11E00B980199711A35
:1033E0000B9AD2F1A0025143019AD2F1770291FBDC
:1033F000F2F108180A38644921F81600761C772E75
:10340000EBDB0198461E07E05F4810EB4600408862
:103410005D4921F81600761E002EF5D577260DE0C1
:10342000574830F91600584931F91610081802218A
:1034300090FBF1F0554921F81600761E002EEFD5CD
:10344000A248006815B0BDE8F08F10B4772007E0FF
:103450004E4931F81010DFF8FC2322F81010401EFE
:10346000444909688142F3DB74200FE0474B0C1894
:1034700033F91430D218491C0329F7DB052192FBDC
:10348000F1F1DFF8D02322F81010401E3949096805
:10349000C91C814203DA00227FF00101ECE710BC75
:1034A000704780B500F012FA0022DFF8AC3300F06C
:1034B00043FC02000B000020DFF8A01300F01CFA10
:1034C0000022DFF89C3300F037FC00F009FC01001B
:1034D000002000F0F3F90100C82000F0EBF902BD74
:1034E000F8B5002077251DE0DFF8682312EB4502D0
:1034F00052880B1BDFF85C6336F91560DFF85473F4
:1035000017EB4507B7F90270F61B7343061B93FBD5
:10351000F6F39A18DFF84C3323F81120491C814246
:10352000E2DB6D1E134909688D420DDB04002800A3
:10353000FFF7B7FFDFF81C1331F81510DFF824236D
:1035400022F810102100EAE7DFF81C13086077204A
:10355000FFF7A7FF010008E0DFF8082332F810208A
:10356000DFF8003323F81120491E0029F4D5F1BDFE
:1035700000000000BC320020D4320020C8320020FD
:10358000682D0020CC320020582E0020482F00202B
:10359000D8320020DC320020F032002010B52DEDB2
:1035A000028B08EE100AFFF750FFFFF799FFDFF8D4
:1035B000BC02816F002000F081F90400DFF8A8024E
:1035C0000168DFF8A802806FDFF8A022D26F101820
:1035D00000F070F90021220005E0DFF8883233F9AD
:1035E0001230C918521C9042F7DA001B401C91FBA4
:1035F000F0F04F38DFF878120860DFF86C020068EE
:10360000B0F10A01B8EEC80ADFF86002D0ED220A74
:1036100020EE200ABDEEC00A10EE100A00F04AF9B2
:103620000400DFF844020168DFF84002D0F88400AB
:10363000001900F03FF90021220005E0DFF82432F4
:1036400033F91230C918521C9042F7DA001B401CA3
:1036500091FBF0F0B0F14F044F21200000F02AF967
:10366000DFF8101208607FF04E01200000F026F90C
:10367000DFF800120860DFF8F0010168DFF8EC0104
:10368000D0F88C0000F016F90400DFF8DC010168C6
:10369000DFF8D801D0F89000001900F00BF90021F4
:1036A000220005E0DFF8BC3133F91230C918521C92
:1036B0009042F7DA001B401C91FBF0F04F38DFF826
:1036C000B8110860BDEC028B10BD0000D0320020A4
:1036D000FCB50022002300200020692108E0042C12
:1036E00000D30123012A02D1012B00D1401C491E25
:1036F0003C29C0F2A4800022002300260024554D5E
:1037000035F911705D4D5FF0A00C0CFB01557D5D2E
:10371000FF2D03D1FF250095FF250195574D5FF043
:10372000A00C0CFB01557D5D002D03D100250095FB
:1037300000250195474D35F911501AE0DFF83CC1DD
:103740005FF0A00E0EFB01CC15F80CC0BCF1FF0F12
:103750000ED1DDF800E0CDF804E04FF0FF0ECDF81B
:1037600000E0DDF800C0DDF804E0F44500D0761C90
:103770006D1EDFF80CC13CF911C0AC451ADADFF858
:10378000FCC05FF0A00E0EFB01CC15F80CC0BCF124
:10379000000FD3D1DDF800E0CDF804E05FF0000EBB
:1037A000CDF800E0DDF800C0DDF804E0F445DFD03E
:1037B000761CDDE7042E00D30122304DA02606FB47
:1037C00001557D5DFF2D03D1FF250095FF25019556
:1037D0002A4DA02606FB01557D5D002D03D1002555
:1037E0000095002501951B4D35F9115010E0234E31
:1037F000A02707FB0166AE5DFF2E08D1009E019653
:10380000FF260096009E019FBE4200D0641C6D1CE6
:103810001C4E36F91160B542BFF661AF174EA027B6
:1038200007FB0166AE5D002EE1D1009E01960026E9
:103830000096009E019FBE42E9D0641CE7E706287F
:1038400001DB012000E00020F6BD0000F848002068
:10385000000064403830002000003140005CB0407F
:10386000000024C0283100206404FF1F1806FF1F39
:103870005C2D0020602D0020642D0020F0320020FF
:10388000682D0020582E002080B5002201218620BE
:1038900000F0C6FA0B2000F051FB01BD80B50121FC
:1038A000862000F014FB01BD80B50021862000F0C9
:1038B0000EFB01BD884200DB08007047814200DB3F
:1038C00008007047002800D540427047010040F1D1
:1038D0000780F446404200F003F851F00041604791
:1038E00009D0B0FA80F18840C91CC1F5846109058E
:1038F00001EBD02140057047F0B540F2FF7581EA39
:10390000030C0CF0004C15EA11541DBF15EA1357B7
:10391000AC42AF42E5E0BC41C1F31301C3F3130372
:10392000801A994143F4801304D2641E4000494137
:1039300080185941C90241EA5051B1FBF3F603FB2B
:103940001611A2FB0675D7EBC020A94102D2761E44
:1039500080185941C90241EA5051B1FBF3FE03FB03
:103960001E11A2FB0E75D7EBC020A94103D2AEF108
:10397000010E80185941890241EA9051760546EAC4
:103980008E2EB1FBF3F603FB1611A2FB0675D7EBE7
:103990008020A94102D2761E80185941C90241EA0D
:1039A00050514EEA060EB1FBF3F603FB1611A2FBD3
:1039B0000675D7EBC020A94102D2761E8018594166
:1039C000C90241EA5051B1FBF3F703FB1711A2FB07
:1039D0000735D3EBC020A94167F100070CBF0042B7
:1039E00047F0010766F3D5274FEA1E31B80814F5F2
:1039F000806412DDBD0775F1004250EB0E5051EBB3
:103A0000045111F5801F5CBF41EA0C01F0BD4CF080
:103A10007F6141F0E0410020F0BDBD076D0840EA44
:103A20000E5041F48011D4F10104B4F120060ADAF9
:103A3000C4F120060200E04001FA06F3E140184319
:103A4000B24015430EE0342C13DCC6F1200445EAE5
:103A500040056D0820FA06F2154321FA06F0A14050
:103A60000D43002175F1004250F1000051EB0C01B3
:103A7000F0BD00205FEA0C01F0BDCFB992185B41A8
:103A8000B3FA83F704BFB2FA82F6BF190B3FB7F15E
:103A900020062FBF02FA06F3BB40C7F1200622FA28
:103AA00006F638BF3343BA401CB1E419641E33E74D
:103AB0007F4231F00041B1FA81F404BFB0FA80F6E0
:103AC000A4190B3CB4F120062FBF00FA06F1A14067
:103AD000C4F1200620FA06F638BF3143A0403C1B53
:103AE0001AE7AC421ABF05EA1357AF4212E050EA98
:103AF00041061CBF52EA4306BFE750EA4107304681
:103B000061461CBF41EA0551F0BD52EA430C08BFB3
:103B1000C143F0BD00204FF4001616EB410F98BFD3
:103B200016EB430F08BF16EB410F24BFC14305E05E
:103B300016EB430F0CBF61464CEA0551F0BD50F83F
:103B4000041B61B150F8042BD30744BFA9F1010352
:103B50009A180023091F42F8043BFAD1EFE7704797
:103B600070B44FF0004591EA030F44BF6B4000F082
:103B7000EDB800BF841A71EB030604D26E40001B3F
:103B8000B141121973414FF4001C1CEB410F34BFBB
:103B90007CEB430684E00C0DA4EB1356362E7DDC43
:103BA000012E43DC45EAC32343EA525312BFD2023B
:103BB00092025B08240545EAC12141EA5051D2EB4B
:103BC000C020994125D407D1B0FA80F610FA06F149
:103BD00064D00020203608E0B1FA81F6B140C6F189
:103BE000200220FA02F21143B0404FEAF474B4EB21
:103BF000465434F001064FEA74040AD8D6F500168C
:103C0000760D04F00044F04061FA06F25040F140B5
:103C10004840C00A40EA415021F0004128BF5FEA15
:103C2000500550F1000044EBD12137E045EAC323B1
:103C3000DB0A45EAC121C90AB6F120050EDD42EAD8
:103C40000242120CC5F1200603FA06F6EB4042EAE6
:103C500006056D42984161F100010DE062FA06F53A
:103C6000F240554063FA06FC82EA0C02F3405A40E7
:103C70006D42904161EB030111F4801F05D1641E78
:103C8000620502D06D004041494121F48011430892
:103C900075F1004350F1000041EB045170BC7047D6
:103CA0001CEB410F15D223F0004352EA43060BD020
:103CB0004FEA4C0CBCEB410F04D80C0D661E342EA1
:103CC000B7DDEBE7801A994150EA410608BF0021B1
:103CD000E4E708BF1CEB430F28BF6FF00001DDE7EE
:103CE000F446400D40EAC120490006D200F014F825
:103CF000004248BF6FF00040604700F00DF84FF001
:103D0000004188428CBF084640426047400D40EA6F
:103D1000C120490080F00D8040F00040490DA1F520
:103D20008061491C05D4D1F11F0154BFC840C017A0
:103D300070474FF00000704770B44FF0004591EAB3
:103D4000030C44BF6B40FFF715BF00BF841A71EB33
:103D5000030603D2001BB141121973414FF4001C3A
:103D60001CEB410F34BF7CEB430443E00C0DA4EB90
:103D70001356352E50DC45EAC323DB0A45EAC12140
:103D8000C912B6F120050DDD63FA05F6EB4086EAAF
:103D90000305124218BF45F00105C01851F100019A
:103DA0000CD213E062FA06F5F2405540F3415A4056
:103DB000B340F3405A408018594107D349085FEA9D
:103DC00030005FEA350528BF45F0010501F5801197
:103DD000420875F1004250F1000041EB045170BC03
:103DE0004FF4001C1CEB410F38BF70470020090D39
:103DF000090570471CEB410F10D252EA43060BD065
:103E0000BCEB410F05D80C0DAB43661E342EB5DD5F
:103E100002E0AB438018594170BC704770BC7047DA
:103E200070B504000E0015004FF480712000C0B280
:103E300000F0CCF9F6B2002E11D13F48E4B2611186
:103E400050F821003C49E4B2621151F8221049694E
:103E5000012214F01F039A409143416136E0364835
:103E6000E4B2611150F821003349E4B2621151F813
:103E700022104969012214F01F039A401143416145
:103E8000EDB2002D11D12C48E4B2611150F821009F
:103E90000068012114F01F02914088432649E4B2D2
:103EA000621151F82210086010E02348E4B2611159
:103EB00050F821000068012114F01F0291400843CE
:103EC0001D49E4B2621151F82210086070BDC9B2F8
:103ED000002911D11849C0B2421151F822100968C5
:103EE000012210F01F039A409143134AC0B24011BF
:103EF00052F82000016010E00F49C0B2421151F8A1
:103F000022100968012210F01F039A4011430A4A47
:103F1000C0B2401152F82000016070470649C0B29B
:103F2000421151F82210096910F01F000A00C24026
:103F300012F00100704700008004FF1F80B5C0B27E
:103F40004109C9B2002902D0012911D020E09B49C2
:103F5000096851F00061994A11609949096831F086
:103F60009001974A116096490968954A11600FE0DF
:103F70009449096851F00061924A116090490968BA
:103F800031F410418E4A11608D4909688C4A1160E4
:103F9000C0B2002800F08980012800F08680032844
:103FA00000F0838008284ED0092851D00A2854D028
:103FB0000B2857D00C285AD00D285DD00E2860D081
:103FC0000F2863D0102870D0112864D0122867D031
:103FD00013286AD0142868D01A2866D01D2864D007
:103FE0001E2862D0202861D021285FD023285DD0F0
:103FF00024285CD025285FD0262862D0272865D0C9
:10400000282868D029286BD02A286ED02B2871D078
:104010002C2874D02D2877D02E287AD02F287DD028
:10402000302800F0858031287DD0322800F0808053
:1040300033287DD034287BD03A2879D03D2877D0DA
:104040003E2875D075E00021202000F0BFF870E018
:104050000021212000F0BAF86BE00021072000F0D9
:10406000B5F866E00021082000F0B0F861E000211A
:10407000222000F0ABF85CE00021232000F0A6F83D
:1040800057E00021402000F0A1F852E0002141203B
:1040900000F09CF84DE00021982000F097F848E0EF
:1040A0000021992000F092F843E042E041E0002135
:1040B000802000F08BF83CE00021812000F086F8A1
:1040C00037E00021822000F081F832E000218320D7
:1040D00000F07CF82DE00021202000F077F828E0A7
:1040E0000021212000F072F823E00021242000F0BC
:1040F0006DF81EE00021252000F068F819E000218D
:10410000262000F063F814E00021272000F05EF87C
:104110000FE000212A2000F059F80AE000212B20AE
:1041200000F054F805E00021112000F04FF800E005
:10413000FFE701BD10B50200D2B254090020C9B298
:104140001000C0B200F01AF81F48E4B250F8240082
:1041500000680006F8D51C48E4B250F82400006955
:104160001949E4B251F82410096831F08001164A67
:10417000E4B252F82420116080B210BDC0B24209EE
:1041800010F01F00C9B2890011F00C0151F050016C
:104190000D4BD2B253F82230996004210A4BD2B2AF
:1041A00053F82230D960C0B210F01F0050F0400028
:1041B0000549D2B251F82210086070473C80044093
:1041C00018800440308004406804FF1F10B4294A5E
:1041D00012684FF40073C0B24409A3401A43254B40
:1041E0001A60254AC0B2431152F82320012310F06F
:1041F0001F04A340C2F8A0301F4AC0B2431152F8B6
:104200002320C0B210F01F0042F8201010BC7047ED
:1042100010B4184A12684FF40073C0B24409A340A6
:104220001A43144B1A60144AC0B2431152F82320A7
:10423000012310F01F04A340C2F8A03031F4E06164
:104240000D4AC0B2431152F82320C0B210F01F0330
:1042500052F8232012F4E0621143074AC0B243111E
:1042600052F82320C0B210F01F0042F8201010BCFA
:104270007047000038800440F004FF1F10B5002490
:1042800007E00022012114F14000C0B2FFF7C8FD91
:10429000641CE4B2082CF4DB002201214920FFF762
:1042A000BFFD012201214A20FFF7BAFD01220121B1
:1042B0004B20FFF7B5FD002201214C20FFF7B0FD98
:1042C000002201214D20FFF7ABFD4FF4A0714920E2
:1042D000FFF77CFF4FF4A0714A20FFF777FF4FF400
:1042E000A0714B20FFF772FF4FF4A0714C20FFF735
:1042F0006DFF0020DFF8241D08600120DFF81C1D81
:1043000008604FF4FA7001F0E3FD0120DFF8101DA2
:1043100008600020DFF80C1D08600020DFF8081D91
:1043200008601120DFF8041D08700020DFF8001D70
:1043300008600120DFF8F81C08600120DFF8E81CA5
:104340000860782001F0C4FD0120DFF8D41C08606B
:104350000020DFF8D01C08600020DFF8CC1C0860CB
:10436000B120DFF8C81C08700020DFF8C41C08600A
:104370000120DFF8BC1C08600120DFF8AC1C0860DD
:104380000120DFF89C1C08600120DFF8981C086001
:104390000020DFF8941C08600520DFF8901C0870EE
:1043A0000020DFF88C1C08600120DFF8841C086006
:1043B0000120DFF8741C08600120DFF8641C08602D
:1043C0000120DFF8601C08600020DFF85C1C08603A
:1043D0003A20DFF8581C08700020DFF8541C0860F1
:1043E0000120DFF84C1C08600120DFF83C1C08604D
:1043F0000120DFF82C1C08600120DFF8281C086071
:104400000020DFF8241C08603A20DFF8201C087028
:104410000020DFF81C1C08600120DFF8141C086075
:104420000120DFF8041C08600120DFF8F41B08609D
:104430000020DFF8F01B08600020DFF8EC1B0860AC
:10444000B220DFF8E81B08700020DFF8E41B0860EA
:104450000120DFF8DC1B08600120DFF8CC1B0860BE
:104460000120DFF8BC1B08600120DFF8B81B0860E2
:104470000020DFF8B41B08600520DFF8B01B0870CF
:104480000020DFF8AC1B08600120DFF8A41B0860E7
:104490000120DFF8941B08600120DFF8841B08600E
:1044A0000120DFF8801B08600020DFF87C1B08601B
:1044B0003A20DFF8781B08700020DFF8741B0860D2
:1044C0000120DFF86C1B08600120DFF85C1B08602E
:1044D0000120DFF84C1B08600120DFF8481B086052
:1044E0000020DFF8441B08603A20DFF8401B08700A
:1044F0000020DFF83C1B08600120DFF8341B086057
:104500000120DFF8241B08600120DFF8141B08607D
:104510000020DFF8101B08600020DFF80C1B08608B
:10452000B320DFF8081B08700020DFF8041B0860C8
:104530000120DFF8FC1A08600120DFF8EC1A08609F
:104540000120DFF8DC1A08600120DFF8D81A0860C3
:104550000020DFF8D41A08600520DFF8D01A0870B0
:104560000020DFF8CC1A08600120DFF8C41A0860C8
:104570000120DFF8B41A08600120DFF8A41A0860EF
:104580000120DFF8A01A08600020DFF89C1A0860FC
:104590003A20DFF8981A08700020DFF8941A0860B3
:1045A0000120DFF88C1A08600120DFF87C1A08600F
:1045B0000120DFF86C1A08600120DFF8681A086033
:1045C0000020DFF8641A08603A20DFF8601A0870EB
:1045D0000020DFF85C1A08600120DFF8541A086038
:1045E0000120DFF8441A08600120DFF8341A08605F
:1045F0000120DFF8301A08600020DFF82C1A08606C
:104600000520DFF8281A08700020DFF8241A086057
:104610000120DFF81C1A08600120DFF80C1A08607E
:104620000120DFF8FC1908600120DFF8F8190860A4
:104630000020DFF8F41908603A20DFF8F01908705C
:104640000020DFF8EC1908600120DFF8E4190860A9
:104650000120DFF8D41908600120DFF8C4190860D0
:104660000120DFF8C01908600020DFF8BC190860DD
:104670003A20DFF8B81908700020DFF8B419086094
:104680000120DFF8AC1908600120DFF89C190860F0
:104690000120DFF88C1908600020DFF88819086015
:1046A0000020DFF884190860B420DFF88019087052
:1046B0000020DFF87C1908600120DFF87419086019
:1046C0000120DFF8641908600120DFF85419086040
:1046D0000120DFF8501908600020DFF84C1908604D
:1046E0000720DFF8481908700020DFF84419086037
:1046F0000120DFF83C1908600120DFF82C19086060
:104700000120DFF81C1908600020DFF81819086084
:104710000020DFF814190860C020DFF810190870B5
:104720000020DFF80C1908600120DFF80419086088
:104730000120DFF8F41808600120DFF8E4180860B1
:104740000120DFF8E01808600020DFF8DC180860BE
:104750002820DFF8D81808700020DFF8D418086087
:104760000120DFF8CC1808600120DFF8BC180860D1
:104770000120DFF8AC1808600120DFF8A8180860F5
:104780000020DFF8A41808600820DFF8A0180870DF
:104790000020DFF89C1808600120DFF894180860FA
:1047A0000120DFF8841808600120DFF87418086021
:1047B0000120DFF8701808600020DFF86C1808602E
:1047C0008420DFF8681808700020DFF8641808609B
:1047D0000120DFF85C1808600120DFF84C18086041
:1047E0000120DFF83C1808600020DFF83818086066
:1047F0000020DFF834180860C120DFF83018087096
:104800000020DFF82C1808600120DFF82418086069
:104810000120DFF8141808600120DFF80418086090
:104820000120DFF8001808600020DFF8FC1708609E
:10483000C020DFF8F81708700020DFF8F4170860D0
:104840000120DFF8EC1708600120DFF8DC170860B2
:104850000120DFF8CC1708600020DFF8C8170860D7
:104860000020DFF8C4170860C220DFF8C017087006
:104870000020DFF8BC1708600120DFF8B4170860DB
:104880000120DFF8A41708600120DFF89417086002
:104890000120DFF8901708600020DFF88C1708600F
:1048A0000C20DFF8881708700020DFF884170860F4
:1048B0000120DFF87C1708600120DFF86C17086022
:1048C0000120DFF85C1708600120DFF85817086046
:1048D0000020DFF8541708600020DFF85017087038
:1048E0000020DFF84C1708600120DFF8441708604B
:1048F0000120DFF8341708600120DFF82417086072
:104900000020DFF8201708600020DFF81C1708607F
:10491000C320DFF8181708700020DFF814170860AC
:104920000120DFF80C1708600120DFF8FC16086092
:104930000120DFF8EC1608600120DFF8E8160860B7
:104940000020DFF8E41608608C20DFF8E01608701D
:104950000020DFF8DC1608600120DFF8D4160860BC
:104960000120DFF8C41608600120DFF8B4160860E3
:104970000120DFF8B01608600020DFF8AC160860F0
:104980002A20DFF8A81608700020DFF8A4160860B7
:104990000120DFF89C1608600120DFF88C16086003
:1049A0000120DFF87C1608600020DFF87816086028
:1049B0000020DFF874160860C420DFF87016087055
:1049C0000020DFF86C1608600120DFF8641608602C
:1049D0000120DFF8541608600120DFF84416086053
:1049E0000120DFF8401608600020DFF83C16086060
:1049F0008A20DFF8381608700020DFF834160860C7
:104A00000120DFF82C1608600120DFF81C16086072
:104A10000120DFF80C1608600120DFF80816086096
:104A20000020DFF804160860EE20DFF8001608709A
:104A30000020DFF8FC1508600120DFF8F41508609D
:104A40000120DFF8E41508600120DFF8D4150860C4
:104A50000020DFF8D01508600020DFF8CC150860D2
:104A6000C520DFF8C81508700020DFF8C4150860FD
:104A70000120DFF8BC1508600120DFF8AC150860E4
:104A80000120DFF89C1508600120DFF89815086008
:104A90000020DFF8941508600C20DFF890150870EE
:104AA0000020DFF88C1508600120DFF8841508600D
:104AB0000120DFF8741508600120DFF86415086034
:104AC0000020DFF8601508600020DFF85C15086042
:104AD000E020DFF8581508700020DFF85415086052
:104AE0000120DFF84C1508600120DFF83C15086054
:104AF0000120DFF82C1508600120DFF82815086078
:104B00000020DFF8241508600520DFF82015087064
:104B10000020DFF81C1508600120DFF8141508607C
:104B20000120DFF8041508600120DFF8F4140860A4
:104B30000120DFF8F01408600020DFF8EC140860B2
:104B40001A20DFF8E81408700020DFF8E414086089
:104B50000120DFF8DC1408600120DFF8CC140860C5
:104B60000120DFF8BC1408600120DFF8B8140860E9
:104B70000020DFF8B41408600C20DFF8B0140870CF
:104B80000020DFF8AC1408600120DFF8A4140860EE
:104B90000120DFF8941408600120DFF88414086015
:104BA0000120DFF8801408600020DFF87C14086022
:104BB0000E20DFF8781408700020DFF87414086005
:104BC0000120DFF86C1408600120DFF85C14086035
:104BD0000120DFF84C1408600120DFF84814086059
:104BE0000020DFF8441408603A20DFF84014087011
:104BF0000020DFF83C1408600120DFF8341408605E
:104C00000120DFF8241408600120DFF81414086084
:104C10000120DFF8101408600020DFF80C14086091
:104C20003420DFF8081408700020DFF8041408604E
:104C30000120DFF8FC1308600120DFF8EC130860A6
:104C40000120DFF8DC1308600120DFF8D8130860CA
:104C50000020DFF8D41308602D20DFF8D01308708F
:104C60000020DFF8CC1308600120DFF8C4130860CF
:104C70000120DFF8B41308600120DFF8A4130860F6
:104C80000120DFF8A01308600020DFF89C13086003
:104C90002F20DFF8981308700020DFF894130860C5
:104CA0000120DFF88C1308600120DFF87C13086016
:104CB0000120DFF86C1308600120DFF8681308603A
:104CC0000020DFF8641308602D20DFF860130870FF
:104CD0000020DFF85C1308600120DFF8541308603F
:104CE0000120DFF8441308600120DFF83413086066
:104CF0000120DFF8301308600020DFF82C13086073
:104D00002A20DFF8281308700020DFF82413086039
:104D10000120DFF81C1308600120DFF80C13086085
:104D20000120DFF8FC1208600120DFF8F8120860AB
:104D30000020DFF8F41208602F20BC490870002022
:104D4000BB4908600120BA4908600120B6490860E3
:104D50000120B34908600120B24908600020B2492F
:104D600008603C20B14908700020B149086001206A
:104D7000AF4908600120AC4908600120A8490860DB
:104D80000120A84908600020A74908600020A74921
:104D900008700020A64908600120A549086001208C
:104DA000A149086001209E49086001209D490860D2
:104DB00000209D49086001209C49087000209C4902
:104DC000086001209A490860012097490860012085
:104DD00093490860012093490860002092490860C7
:104DE00002209249087000209149086001209049F2
:104DF000086001208C490860012089490860012071
:104E00008849086000208849086010208749087098
:104E100000208749086001208549086001208249F7
:104E2000086001207E49086000207E49086000205B
:104E30007D490860E1207D49087000207C490860B8
:104E400001207B49086001207749086001207449EE
:104E5000086001207349086000207349086004203D
:104E6000724908700020724908600120704908608A
:104E700001206D49086001206949086001206949E5
:104E800008600020684908601B20684908700020FD
:104E9000674908600120664908600120624908608E
:104EA00001205F49086001205E49086000205E49DA
:104EB00008600D205D49087000205D4908600120F0
:104EC0005B49086001205849086001205449086086
:104ED0000120544908600020534908600E205349BE
:104EE00008700020524908600120514908600120E3
:104EF0004D49086001204A4908600120494908607D
:104F00000020494908602D20484908700020484980
:104F100008600120464908600120434908600120DB
:104F20003F49086001203F49086000203E49086071
:104F300029203E49087000203D49086001203C4975
:104F400008600120384908600120354908600120C7
:104F5000344908600020344908602420334908702F
:104F600000203349086001203149086001202E49A2
:104F7000086001202A49086001202A4908600020B1
:104F8000294908602920294908700020284908601B
:104F90000120274908600120234908600120204999
:104FA000086001201F49086000201F490860282070
:104FB0001E49087000201E49086001201C49086035
:104FC0000120194908600120154908600120154990
:104FD0000860002014490860262014490870002049
:104FE0001349086001201249086001200E49086039
:104FF00001200B49086001200A49086000200A4985
:105000000860312009490870002009490860012022
:1050100007490860012004490CE000BF3410FE433A
:105020002810FE433010FE432C10FE4380F00F404A
:105030002410FE4308600120DFF8F81B08600120FF
:10504000DFF8F41B08600020DFF8F01B08603B204D
:10505000DFF8EC1B08700020DFF8E81B0860012077
:10506000DFF8E01B08600120DFF8D01B086001209A
:10507000DFF8C01B08600120DFF8BC1B08600020BF
:10508000DFF8B81B08600020DFF8B41B08700020B0
:10509000DFF8B01B08600120DFF8A81B08600120C2
:1050A000DFF8981B08600120DFF8881B08600120EA
:1050B000DFF8841B08600020DFF8801B08600020F8
:1050C000DFF87C1B08700020DFF8781B08600120E7
:1050D000DFF8701B08600120DFF8601B086001200A
:1050E000DFF8501B08600120DFF84C1B086000202F
:1050F000DFF8481B08600320DFF8441B087000201D
:10510000DFF8401B08600120DFF8381B0860012031
:10511000DFF8281B08600120DFF8181B0860012059
:10512000DFF8141B08600020DFF8101B0860122055
:10513000DFF80C1B08700020DFF8081B0860012056
:10514000DFF8001B08600120DFF8F01A086001207A
:10515000DFF8E01A08600020DFF8DC1A08600020A1
:10516000DFF8D81A08603A20DFF8D41A0870002057
:10517000DFF8D01A08600120DFF8C81A08600120A3
:10518000DFF8B81A08600120DFF8A81A08600120CB
:10519000DFF8A41A08600020DFF8A01A08600520D4
:1051A000DFF89C1A08700020DFF8981A08600120C8
:1051B000DFF8901A08600120DFF8801A08600120EB
:1051C000DFF8701A08600020DFF86C1A0860002011
:1051D000DFF8681A08602920DFF8641A08700020D8
:1051E000DFF8601A08600120DFF8581A0860012013
:1051F000DFF8481A08600120DFF8381A086000203C
:10520000DFF8341A08600020DFF8301A08602C201C
:10521000DFF82C1A08700020DFF8281A0860012037
:10522000DFF8201A08600120DFF8101A0860DFF8A4
:105230002C0C007800F001F810BDDFF8201C08707D
:10524000C0B2002809D0022800F0B982C0F05E8107
:10525000032800F0EA8300F0EBBC0120DFF8D4194A
:1052600008600020DFF8D01908600020DFF8CC19B2
:1052700008603620DFF8C81908700020DFF8C4196C
:1052800008600120DFF8BC1908600120DFF8AC19C4
:1052900008600120DFF89C1908600120DFF89819E8
:1052A00008600020DFF894190860C820DFF8901922
:1052B00008700020DFF88C1908600120DFF88419DD
:1052C00008600120DFF8741908600120DFF8641914
:1052D00008600020DFF8601908600020DFF85C1922
:1052E00008602A20DFF8581908700020DFF85419E8
:1052F00008600120DFF84C1908600120DFF83C1934
:1053000008600120DFF82C1908600120DFF8281957
:1053100008600020DFF8241908600020DFF8201959
:1053200008700020DFF81C1908600120DFF814194C
:1053300008600120DFF8041908600120DFF8F41884
:1053400008600120DFF8F01808600020DFF8EC1892
:1053500008600020DFF8E81808700020DFF8E41883
:1053600008600120DFF8DC1808600120DFF8CC18A5
:1053700008600120DFF8BC1808600120DFF8B818C9
:1053800008600020DFF8B41808600020DFF8B018CB
:1053900008700020DFF8AC1808600120DFF8A418BE
:1053A00008600120DFF8941808600120DFF88418F5
:1053B00008600120DFF8801808600020DFF87C1802
:1053C00008608020DFF8781808700020DFF8741873
:1053D00008600120DFF86C1808600120DFF85C1815
:1053E00008600120DFF84C1808600020DFF848183A
:1053F00008600020DFF8441808602B20DFF8401810
:1054000008700020DFF83C1808600120DFF834182D
:1054100008600120DFF8241808600120DFF8141864
:1054200008600120DFF8101808600020DFF80C1871
:1054300008600020DFF8081808700020DFF8041862
:1054400008600120DFF8FC1708600120DFF8EC1786
:1054500008600120DFF8DC1708600120DFF8D817AA
:1054600008600020DFF8D41708603220DFF8D0177A
:1054700008700020DFF8CC1708600120DFF8C4179F
:1054800008600120DFF8B41708600120DFF8A417D6
:1054900008600120DFF8A01708600020DFF89C17E3
:1054A00008600020DFF8981708700020DFF89417D4
:1054B00008600120DFF88C1708600120DFF87C17F6
:1054C00008600120DFF86C1708600120DFF868171A
:1054D00008600020DFF864170860B220DFF860176A
:1054E00008700020DFF85C1708600120DFF854170F
:1054F00008600120DFF8441708608020DFF8601999
:1055000008808020DFF85C19088091E30120DFF833
:10551000241708600020DFF8201708600020DFF85B
:105520001C1708603620DFF8181708700020DFF815
:10553000141708600120DFF80C1708600120DFF85D
:10554000FC1608600120DFF8EC1608600120DFF887
:10555000E81608600020DFF8E4160860A820DFF8ED
:10556000E01608700020DFF8DC1608600120DFF884
:10557000D41608600120DFF8C41608600120DFF8A7
:10558000B41608600020DFF8B01608600020DFF8CD
:10559000AC1608602A20DFF8A81608700020DFF893
:1055A000A41608600120DFF89C1608600120DFF8CF
:1055B0008C1608600120DFF87C1608600120DFF8F7
:1055C000781608600020DFF8741608600020DFF805
:1055D000701608700020DFF86C1608600120DFF8F4
:1055E000641608600120DFF8541608600120DFF817
:1055F000441608600120DFF8401608600020DFF83C
:105600003C1608600320DFF8381608700020DFF829
:10561000341608600120DFF82C1608600120DFF83E
:105620001C1608600120DFF80C1608600120DFF866
:10563000081608600020DFF8041608600020DFF874
:10564000001608700020DFF8FC1508600120DFF864
:10565000F41508600120DFF8E41508600120DFF888
:10566000D41508600120DFF8D01508600020DFF8AD
:10567000CC1508608220DFF8C81508700020DFF81C
:10568000C41508600120DFF8BC1508600120DFF8B0
:10569000AC1508600120DFF89C1508600020DFF8D9
:1056A000981508600020DFF8941508602B20DFF8BB
:1056B000901508700020DFF88C1508600120DFF8D5
:1056C000841508600120DFF8741508600120DFF8F8
:1056D000641508600120DFF8601508600020DFF81D
:1056E0005C1508600020DFF8581508700020DFF80E
:1056F000541508600120DFF84C1508600120DFF820
:105700003C1508600120DFF82C1508600120DFF847
:10571000281508600020DFF8241508600220DFF853
:10572000201508700020DFF81C1508600120DFF844
:10573000141508600120DFF8041508600120DFF867
:10574000F41408600120DFF8F01408600020DFF88E
:10575000EC1408600020DFF8E81408700020DFF87F
:10576000E41408600120DFF8DC1408600120DFF891
:10577000CC1408600120DFF8BC1408600120DFF8B9
:10578000B81408600020DFF8B41408608120DFF846
:10579000B01408700020DFF8AC1408600120DFF8B6
:1057A000A41408600120DFF8941408608020DFF85A
:1057B000B01608808020DFF8AC16088038E201209F
:1057C000DFF8701408600020DFF86C140860002017
:1057D000DFF8681408603620DFF8641408700020D1
:1057E000DFF8601408600120DFF858140860012019
:1057F000DFF8481408600120DFF838140860012041
:10580000DFF8341408600020DFF830140860082046
:10581000DFF82C1408700020DFF82814086001203D
:10582000DFF8201408600120DFF810140860012060
:10583000DFF8001408600020DFF8FC130860002087
:10584000DFF8F81308602A20DFF8F413087000204E
:10585000DFF8F01308600120DFF8E813086001208A
:10586000DFF8D81308600120DFF8C81308600120B2
:10587000DFF8C41308600020DFF8C01308600020C0
:10588000DFF8BC1308700020DFF8B81308600120AF
:10589000DFF8B01308600120DFF8A01308600120D2
:1058A000DFF8901308600120DFF88C1308600020F7
:1058B000DFF8881308600220DFF8841308700020E6
:1058C000DFF8801308600120DFF8781308600120FA
:1058D000DFF8681308600120DFF858130860012022
:1058E000DFF8541308600020DFF850130860002030
:1058F000DFF84C1308700020DFF84813086001201F
:10590000DFF8401308600120DFF830130860012041
:10591000DFF8201308600120DFF81C130860002066
:10592000DFF8181308608120DFF8141308700020D6
:10593000DFF8101308600120DFF808130860012069
:10594000DFF8F81208600120BA4908600020BA495F
:1059500008600020B94908602B20B9490870002070
:10596000B84908600120B74908600120B3490860C0
:105970000120B04908600120AF4908600020AF490C
:1059800008600020AE4908700020AE490860012080
:10599000AC4908600120A94908600120A5490860B8
:1059A0000120A54908600020A44908600320A449FB
:1059B00008700020A34908600120A2490860012066
:1059C0009E49086001209B49086001209A490860AF
:1059D00000209A49086000209949087000209949E0
:1059E000086001209749086001209449086001205F
:1059F0009049086001209049086000208F490860A4
:105A000082208F49087000208E49086001208D494E
:105A100008600120894908608020DFF8441408806C
:105A20008020DFF84014088002E1012081490860ED
:105A300000208149086000208049086036208049A4
:105A4000087000207F49086001207E49086001201D
:105A50007A4908600120774908600120764908608A
:105A60000020764908606820754908700020754953
:105A70000860012073490860012070490860012016
:105A80006C49086000206C49086000206B49086080
:105A90002A206B49087000206A4908600120694982
:105AA0000860012065490860012062490860012002
:105AB0006149086000206149086000206049087061
:105AC00000206049086001205E49086001205B49B0
:105AD00008600120574908600120574908600020EC
:105AE000564908600320564908700020554908604F
:105AF00001205449086001205049086001204D49A7
:105B0000086001204C49086000204C4908600020D2
:105B10004B49087000204B49086001204949086042
:105B2000012046490860012042490860012042499D
:105B30000860002041490860822041490870002027
:105B40004049086001203F49086001203B49086046
:105B50000120384908600020374908600020374993
:105B600008602B2036490870002036490860012063
:105B70003449086001203149086001202D4908603E
:105B800001202D49086000202C49086000202C4984
:105B9000087000202B49086001202A490860012074
:105BA0002649086001202349086001202249086035
:105BB0000020224908600020214908700020214966
:105BC000086001201F49086001201C49086001206D
:105BD000184908600120184908600020174908602A
:105BE0000020174908700020164908600120154957
:105BF000086001201149086001200E490860012059
:105C00000D49086000200D49086080200C4908708B
:105C100000200C49086001200A490860012007495A
:105C2000086080208E49088080208E490880FFE728
:105C3000704700002810FE433010FE432C10FE4336
:105C400080F00F402410FE4303B484480078C0075E
:105C500005D5BDF800002030ADF8000004E0BDF827
:105C600002002030ADF8020001207F4908600020CA
:105C70007E49086000207E4908602A207D4908701E
:105C800000207D49086001207B4908600120784997
:105C900008600120744908600120744908600020F0
:105CA00073490860BDF8000080B2000A71490870AD
:105CB00000207149086001206F49086001206C498B
:105CC00008600120684908600120684908600020D8
:105CD00067490860BDF80000664908700020664901
:105CE00008600120644908600120614908600120C2
:105CF0005D49086001205D49086000205C4908603A
:105D0000BDF80000BDF8041011FA80F0401E00122A
:105D10005849087000205849086001205649086019
:105D200001205349086001204F49086001204F4974
:105D3000086000204E490860BDF80000BDF804105E
:105D40000818401E4B49087000204B49086001208C
:105D5000494908600120464908600120424908601D
:105D60000020424908600020414908602B20414939
:105D7000087000204049086001203F490860012068
:105D80003B49086001203849086001203749086014
:105D9000002037490860BDF8020080B2000A35498A
:105DA0000870002034490860012033490860012050
:105DB0002F49086001202C49086001202B49086008
:105DC00000202B490860BDF802002A490870002015
:105DD00029490860012028490860012024490860F9
:105DE0000120214908600120204908600020204945
:105DF0000860BDF80200BDF8061011FA80F0401EE0
:105E000000121C49087000201B49086001201A4933
:105E1000086001201649086001201349086001202C
:105E200012490860002012490860BDF80200BDF860
:105E300006100818401E0F49087000200E4908601F
:105E400001200D49086001200949086002B070472F
:105E5000034800887047034800887047A9870020DE
:105E60001C05FF1F1E05FF1F2810FE433010FE43B8
:105E70002C10FE4380F00F402410FE4310490968A7
:105E800051F080710E4A11600E49096851F001010C
